{
  "contractName": "VotingContract",
  "abi": [
    {
      "inputs": [],
      "stateMutability": "nonpayable",
      "type": "constructor"
    },
    {
      "anonymous": false,
      "inputs": [
        {
          "indexed": true,
          "internalType": "uint256",
          "name": "candidateId",
          "type": "uint256"
        }
      ],
      "name": "votedEvent",
      "type": "event"
    },
    {
      "inputs": [
        {
          "internalType": "uint256",
          "name": "",
          "type": "uint256"
        }
      ],
      "name": "candidates",
      "outputs": [
        {
          "internalType": "uint256",
          "name": "id",
          "type": "uint256"
        },
        {
          "internalType": "string",
          "name": "name",
          "type": "string"
        },
        {
          "internalType": "uint256",
          "name": "voteCount",
          "type": "uint256"
        }
      ],
      "stateMutability": "view",
      "type": "function",
      "constant": true
    },
    {
      "inputs": [],
      "name": "candidatesCount",
      "outputs": [
        {
          "internalType": "uint256",
          "name": "",
          "type": "uint256"
        }
      ],
      "stateMutability": "view",
      "type": "function",
      "constant": true
    },
    {
      "inputs": [
        {
          "internalType": "address",
          "name": "",
          "type": "address"
        }
      ],
      "name": "voters",
      "outputs": [
        {
          "internalType": "bool",
          "name": "",
          "type": "bool"
        }
      ],
      "stateMutability": "view",
      "type": "function",
      "constant": true
    },
    {
      "inputs": [
        {
          "internalType": "string",
          "name": "_name",
          "type": "string"
        }
      ],
      "name": "addCandidate",
      "outputs": [],
      "stateMutability": "nonpayable",
      "type": "function"
    },
    {
      "inputs": [
        {
          "internalType": "uint256",
          "name": "_candidateId",
          "type": "uint256"
        }
      ],
      "name": "vote",
      "outputs": [],
      "stateMutability": "nonpayable",
      "type": "function"
    }
  ],
  "bytecode": "0x60806040523480156200001157600080fd5b50620000586040518060400160405280600681526020017f2052616d61200000000000000000000000000000000000000000000000000000815250620000ea60201b60201c565b6200009e6040518060400160405280600681526020017f204e69636b200000000000000000000000000000000000000000000000000000815250620000ea60201b60201c565b620000e46040518060400160405280600681526020017f204a6f7365200000000000000000000000000000000000000000000000000000815250620000ea60201b60201c565b62000545565b60026000815480929190620000ff90620001a1565b919050555060405180606001604052806002548152602001828152602001600081525060008060025481526020019081526020016000206000820151816000015560208201518160010190816200015791906200045e565b506040820151816002015590505050565b7f4e487b7100000000000000000000000000000000000000000000000000000000600052601160045260246000fd5b6000819050919050565b6000620001ae8262000197565b91507fffffffffffffffffffffffffffffffffffffffffffffffffffffffffffffffff8203620001e357620001e262000168565b5b600182019050919050565b600081519050919050565b7f4e487b7100000000000000000000000000000000000000000000000000000000600052604160045260246000fd5b7f4e487b7100000000000000000000000000000000000000000000000000000000600052602260045260246000fd5b600060028204905060018216806200027057607f821691505b60208210810362000286576200028562000228565b5b50919050565b60008190508160005260206000209050919050565b60006020601f8301049050919050565b600082821b905092915050565b600060088302620002f07fffffffffffffffffffffffffffffffffffffffffffffffffffffffffffffffff82620002b1565b620002fc8683620002b1565b95508019841693508086168417925050509392505050565b6000819050919050565b60006200033f62000339620003338462000197565b62000314565b62000197565b9050919050565b6000819050919050565b6200035b836200031e565b620003736200036a8262000346565b848454620002be565b825550505050565b600090565b6200038a6200037b565b6200039781848462000350565b505050565b5b81811015620003bf57620003b360008262000380565b6001810190506200039d565b5050565b601f8211156200040e57620003d8816200028c565b620003e384620002a1565b81016020851015620003f3578190505b6200040b6200040285620002a1565b8301826200039c565b50505b505050565b600082821c905092915050565b6000620004336000198460080262000413565b1980831691505092915050565b60006200044e838362000420565b9150826002028217905092915050565b6200046982620001ee565b67ffffffffffffffff811115620004855762000484620001f9565b5b62000491825462000257565b6200049e828285620003c3565b600060209050601f831160018114620004d65760008415620004c1578287015190505b620004cd858262000440565b8655506200053d565b601f198416620004e6866200028c565b60005b828110156200051057848901518255600182019150602085019450602081019050620004e9565b868310156200053057848901516200052c601f89168262000420565b8355505b6001600288020188555050505b505050505050565b610c0780620005556000396000f3fe608060405234801561001057600080fd5b50600436106100575760003560e01c80630121b93f1461005c5780632d35a8a2146100785780633477ee2e14610096578063462e91ec146100c8578063a3ec138d146100e4575b600080fd5b61007660048036038101906100719190610440565b610114565b005b6100806102a4565b60405161008d919061047c565b60405180910390f35b6100b060048036038101906100ab9190610440565b6102aa565b6040516100bf93929190610527565b60405180910390f35b6100e260048036038101906100dd919061069a565b61035c565b005b6100fe60048036038101906100f99190610741565b6103d6565b60405161010b9190610789565b60405180910390f35b600160003373ffffffffffffffffffffffffffffffffffffffff1673ffffffffffffffffffffffffffffffffffffffff16815260200190815260200160002060009054906101000a900460ff16156101a1576040517f08c379a0000000000000000000000000000000000000000000000000000000008152600401610198906107f0565b60405180910390fd5b6000811180156101b357506002548111155b6101f2576040517f08c379a00000000000000000000000000000000000000000000000000000000081526004016101e99061085c565b60405180910390fd5b60018060003373ffffffffffffffffffffffffffffffffffffffff1673ffffffffffffffffffffffffffffffffffffffff16815260200190815260200160002060006101000a81548160ff021916908315150217905550600080828152602001908152602001600020600201600081548092919061026f906108ab565b9190505550807ffff3c900d938d21d0990d786e819f29b8d05c1ef587b462b939609625b684b1660405160405180910390a250565b60025481565b60006020528060005260406000206000915090508060000154908060010180546102d390610922565b80601f01602080910402602001604051908101604052809291908181526020018280546102ff90610922565b801561034c5780601f106103215761010080835404028352916020019161034c565b820191906000526020600020905b81548152906001019060200180831161032f57829003601f168201915b5050505050908060020154905083565b6002600081548092919061036f906108ab565b919050555060405180606001604052806002548152602001828152602001600081525060008060025481526020019081526020016000206000820151816000015560208201518160010190816103c59190610aff565b506040820151816002015590505050565b60016020528060005260406000206000915054906101000a900460ff1681565b6000604051905090565b600080fd5b600080fd5b6000819050919050565b61041d8161040a565b811461042857600080fd5b50565b60008135905061043a81610414565b92915050565b60006020828403121561045657610455610400565b5b60006104648482850161042b565b91505092915050565b6104768161040a565b82525050565b6000602082019050610491600083018461046d565b92915050565b600081519050919050565b600082825260208201905092915050565b60005b838110156104d15780820151818401526020810190506104b6565b60008484015250505050565b6000601f19601f8301169050919050565b60006104f982610497565b61050381856104a2565b93506105138185602086016104b3565b61051c816104dd565b840191505092915050565b600060608201905061053c600083018661046d565b818103602083015261054e81856104ee565b905061055d604083018461046d565b949350505050565b600080fd5b600080fd5b7f4e487b7100000000000000000000000000000000000000000000000000000000600052604160045260246000fd5b6105a7826104dd565b810181811067ffffffffffffffff821117156105c6576105c561056f565b5b80604052505050565b60006105d96103f6565b90506105e5828261059e565b919050565b600067ffffffffffffffff8211156106055761060461056f565b5b61060e826104dd565b9050602081019050919050565b82818337600083830152505050565b600061063d610638846105ea565b6105cf565b9050828152602081018484840111156106595761065861056a565b5b61066484828561061b565b509392505050565b600082601f83011261068157610680610565565b5b813561069184826020860161062a565b91505092915050565b6000602082840312156106b0576106af610400565b5b600082013567ffffffffffffffff8111156106ce576106cd610405565b5b6106da8482850161066c565b91505092915050565b600073ffffffffffffffffffffffffffffffffffffffff82169050919050565b600061070e826106e3565b9050919050565b61071e81610703565b811461072957600080fd5b50565b60008135905061073b81610715565b92915050565b60006020828403121561075757610756610400565b5b60006107658482850161072c565b91505092915050565b60008115159050919050565b6107838161076e565b82525050565b600060208201905061079e600083018461077a565b92915050565b7f20416c726561647920766f746564202e00000000000000000000000000000000600082015250565b60006107da6010836104a2565b91506107e5826107a4565b602082019050919050565b60006020820190508181036000830152610809816107cd565b9050919050565b7f20496e76616c69642063616e6469646174652000000000000000000000000000600082015250565b60006108466013836104a2565b915061085182610810565b602082019050919050565b6000602082019050818103600083015261087581610839565b9050919050565b7f4e487b7100000000000000000000000000000000000000000000000000000000600052601160045260246000fd5b60006108b68261040a565b91507fffffffffffffffffffffffffffffffffffffffffffffffffffffffffffffffff82036108e8576108e761087c565b5b600182019050919050565b7f4e487b7100000000000000000000000000000000000000000000000000000000600052602260045260246000fd5b6000600282049050600182168061093a57607f821691505b60208210810361094d5761094c6108f3565b5b50919050565b60008190508160005260206000209050919050565b60006020601f8301049050919050565b600082821b905092915050565b6000600883026109b57fffffffffffffffffffffffffffffffffffffffffffffffffffffffffffffffff82610978565b6109bf8683610978565b95508019841693508086168417925050509392505050565b6000819050919050565b60006109fc6109f76109f28461040a565b6109d7565b61040a565b9050919050565b6000819050919050565b610a16836109e1565b610a2a610a2282610a03565b848454610985565b825550505050565b600090565b610a3f610a32565b610a4a818484610a0d565b505050565b5b81811015610a6e57610a63600082610a37565b600181019050610a50565b5050565b601f821115610ab357610a8481610953565b610a8d84610968565b81016020851015610a9c578190505b610ab0610aa885610968565b830182610a4f565b50505b505050565b600082821c905092915050565b6000610ad660001984600802610ab8565b1980831691505092915050565b6000610aef8383610ac5565b9150826002028217905092915050565b610b0882610497565b67ffffffffffffffff811115610b2157610b2061056f565b5b610b2b8254610922565b610b36828285610a72565b600060209050601f831160018114610b695760008415610b57578287015190505b610b618582610ae3565b865550610bc9565b601f198416610b7786610953565b60005b82811015610b9f57848901518255600182019150602085019450602081019050610b7a565b86831015610bbc5784890151610bb8601f891682610ac5565b8355505b6001600288020188555050505b50505050505056fea2646970667358221220a81889f62aa2069566f8b201c80a62a40065ce0efbb11c1f23f08a117cbc265564736f6c63430008130033",
  "immutableReferences": {},
  "source": "// SPDX-License-Identifier: MIT\npragma solidity >=0.4.22 <0.9.0;\n\ncontract VotingContract {\n    struct Candidate {\n      uint id;\n      string name ;\n      uint voteCount ;\n    }\n\n    mapping ( uint => Candidate ) public candidates ;\n    mapping ( address => bool ) public voters ;\n\n    uint public candidatesCount ;\n\n    event votedEvent ( uint indexed candidateId );\n\n    constructor () {\n      addCandidate (\" Rama \");\n      addCandidate (\" Nick \");\n      addCandidate (\" Jose \");\n    }\n\n    function addCandidate ( string memory _name ) public {\n      candidatesCount ++;\n      candidates [ candidatesCount ] = Candidate ( candidatesCount ,\n      _name , 0);\n    }\n\n    function vote ( uint _candidateId ) public {\n      require (! voters [msg . sender ], \" Already voted .\");\n      require (\n      _candidateId > 0 && _candidateId <= candidatesCount ,\n      \" Invalid candidate \"\n      );\n\n      voters [ msg . sender ] = true ;\n      candidates [ _candidateId ]. voteCount ++;\n\n      emit votedEvent ( _candidateId );\n    }\n}\n",
  "sourcePath": "F:\\Courses\\RCA\\YEAR 2\\WEB3\\Voting-Dapp\\contracts\\VotingContract.sol",
  "compiler": {
    "name": "solc",
    "version": "0.8.19+commit.7dd6d404.Emscripten.clang"
  },
  "schemaVersion": "3.4.16",
  "updatedAt": "2026-06-07T19:53:25.476Z",
  "networkType": "ethereum",
  "devdoc": {
    "kind": "dev",
    "methods": {},
    "version": 1
  },
  "userdoc": {
    "kind": "user",
    "methods": {},
    "version": 1
  }
}